{
  "_format": "hh-sol-artifact-1",
  "contractName": "BitXGoldSwap",
  "sourceName": "src/backend/contracts/BitXGoldSwap.sol",
  "address": "0xF5D47Cf3E638f136B63F9476195370640fAA1aa8",
  "abi": [
    {
      "anonymous": false,
      "inputs": [
        {
          "indexed": false,
          "internalType": "uint256",
          "name": "amount",
          "type": "uint256"
        }
      ],
      "name": "AddMoreRewardToken",
      "type": "event"
    },
    {
      "anonymous": false,
      "inputs": [
        {
          "indexed": false,
          "internalType": "uint256",
          "name": "amount",
          "type": "uint256"
        }
      ],
      "name": "Buy",
      "type": "event"
    },
    {
      "anonymous": false,
      "inputs": [
        {
          "indexed": false,
          "internalType": "contract IERC20",
          "name": "token",
          "type": "address"
        },
        {
          "indexed": false,
          "internalType": "uint256",
          "name": "amount",
          "type": "uint256"
        }
      ],
      "name": "Claim",
      "type": "event"
    },
    {
      "anonymous": false,
      "inputs": [
        {
          "indexed": false,
          "internalType": "uint256",
          "name": "amount",
          "type": "uint256"
        }
      ],
      "name": "DepositBitx",
      "type": "event"
    },
    {
      "anonymous": false,
      "inputs": [
        {
          "indexed": false,
          "internalType": "uint8",
          "name": "version",
          "type": "uint8"
        }
      ],
      "name": "Initialized",
      "type": "event"
    },
    {
      "anonymous": false,
      "inputs": [
        {
          "indexed": true,
          "internalType": "address",
          "name": "previousOwner",
          "type": "address"
        },
        {
          "indexed": true,
          "internalType": "address",
          "name": "newOwner",
          "type": "address"
        }
      ],
      "name": "OwnershipTransferred",
      "type": "event"
    },
    {
      "anonymous": false,
      "inputs": [
        {
          "indexed": true,
          "internalType": "bytes32",
          "name": "role",
          "type": "bytes32"
        },
        {
          "indexed": true,
          "internalType": "bytes32",
          "name": "previousAdminRole",
          "type": "bytes32"
        },
        {
          "indexed": true,
          "internalType": "bytes32",
          "name": "newAdminRole",
          "type": "bytes32"
        }
      ],
      "name": "RoleAdminChanged",
      "type": "event"
    },
    {
      "anonymous": false,
      "inputs": [
        {
          "indexed": true,
          "internalType": "bytes32",
          "name": "role",
          "type": "bytes32"
        },
        {
          "indexed": true,
          "internalType": "address",
          "name": "account",
          "type": "address"
        },
        {
          "indexed": true,
          "internalType": "address",
          "name": "sender",
          "type": "address"
        }
      ],
      "name": "RoleGranted",
      "type": "event"
    },
    {
      "anonymous": false,
      "inputs": [
        {
          "indexed": true,
          "internalType": "bytes32",
          "name": "role",
          "type": "bytes32"
        },
        {
          "indexed": true,
          "internalType": "address",
          "name": "account",
          "type": "address"
        },
        {
          "indexed": true,
          "internalType": "address",
          "name": "sender",
          "type": "address"
        }
      ],
      "name": "RoleRevoked",
      "type": "event"
    },
    {
      "anonymous": false,
      "inputs": [
        {
          "indexed": false,
          "internalType": "uint256",
          "name": "amount",
          "type": "uint256"
        }
      ],
      "name": "Sell",
      "type": "event"
    },
    {
      "anonymous": false,
      "inputs": [],
      "name": "StopTrade",
      "type": "event"
    },
    {
      "inputs": [],
      "name": "ADMIN_ROLE",
      "outputs": [
        {
          "internalType": "bytes32",
          "name": "",
          "type": "bytes32"
        }
      ],
      "stateMutability": "view",
      "type": "function"
    },
    {
      "inputs": [],
      "name": "DEFAULT_ADMIN_ROLE",
      "outputs": [
        {
          "internalType": "bytes32",
          "name": "",
          "type": "bytes32"
        }
      ],
      "stateMutability": "view",
      "type": "function"
    },
    {
      "inputs": [
        {
          "internalType": "address",
          "name": "",
          "type": "address"
        }
      ],
      "name": "Referral",
      "outputs": [
        {
          "internalType": "address",
          "name": "",
          "type": "address"
        }
      ],
      "stateMutability": "view",
      "type": "function"
    },
    {
      "inputs": [
        {
          "internalType": "address",
          "name": "",
          "type": "address"
        }
      ],
      "name": "ReferralStatus",
      "outputs": [
        {
          "internalType": "bool",
          "name": "",
          "type": "bool"
        }
      ],
      "stateMutability": "view",
      "type": "function"
    },
    {
      "inputs": [],
      "name": "TRANSFER_ROLE",
      "outputs": [
        {
          "internalType": "bytes32",
          "name": "",
          "type": "bytes32"
        }
      ],
      "stateMutability": "view",
      "type": "function"
    },
    {
      "inputs": [
        {
          "internalType": "uint256",
          "name": "_ratio",
          "type": "uint256"
        },
        {
          "internalType": "contract IERC20",
          "name": "_USDT",
          "type": "address"
        },
        {
          "internalType": "contract IERC20",
          "name": "_BXG",
          "type": "address"
        }
      ],
      "name": "__BitXSwap_init",
      "outputs": [],
      "stateMutability": "nonpayable",
      "type": "function"
    },
    {
      "inputs": [
        {
          "internalType": "address",
          "name": "_referral",
          "type": "address"
        }
      ],
      "name": "addReferral",
      "outputs": [],
      "stateMutability": "nonpayable",
      "type": "function"
    },
    {
      "inputs": [
        {
          "internalType": "uint256",
          "name": "_commissionRate",
          "type": "uint256"
        }
      ],
      "name": "changeComission",
      "outputs": [],
      "stateMutability": "nonpayable",
      "type": "function"
    },
    {
      "inputs": [
        {
          "internalType": "uint256",
          "name": "_ratio",
          "type": "uint256"
        }
      ],
      "name": "changeRatio",
      "outputs": [],
      "stateMutability": "nonpayable",
      "type": "function"
    },
    {
      "inputs": [
        {
          "internalType": "uint256",
          "name": "_amount",
          "type": "uint256"
        }
      ],
      "name": "depositBitXToken",
      "outputs": [],
      "stateMutability": "nonpayable",
      "type": "function"
    },
    {
      "inputs": [
        {
          "internalType": "uint256",
          "name": "_amount",
          "type": "uint256"
        }
      ],
      "name": "depositUSDTToken",
      "outputs": [],
      "stateMutability": "nonpayable",
      "type": "function"
    },
    {
      "inputs": [],
      "name": "getBitXTokenBalance",
      "outputs": [
        {
          "internalType": "uint256",
          "name": "balance",
          "type": "uint256"
        }
      ],
      "stateMutability": "view",
      "type": "function"
    },
    {
      "inputs": [],
      "name": "getComission",
      "outputs": [
        {
          "internalType": "uint256",
          "name": "",
          "type": "uint256"
        }
      ],
      "stateMutability": "view",
      "type": "function"
    },
    {
      "inputs": [],
      "name": "getRatio",
      "outputs": [
        {
          "internalType": "uint256",
          "name": "",
          "type": "uint256"
        }
      ],
      "stateMutability": "view",
      "type": "function"
    },
    {
      "inputs": [
        {
          "internalType": "bytes32",
          "name": "role",
          "type": "bytes32"
        }
      ],
      "name": "getRoleAdmin",
      "outputs": [
        {
          "internalType": "bytes32",
          "name": "",
          "type": "bytes32"
        }
      ],
      "stateMutability": "view",
      "type": "function"
    },
    {
      "inputs": [],
      "name": "getUSDTTokenBalance",
      "outputs": [
        {
          "internalType": "uint256",
          "name": "balance",
          "type": "uint256"
        }
      ],
      "stateMutability": "view",
      "type": "function"
    },
    {
      "inputs": [
        {
          "internalType": "bytes32",
          "name": "role",
          "type": "bytes32"
        },
        {
          "internalType": "address",
          "name": "account",
          "type": "address"
        }
      ],
      "name": "grantRole",
      "outputs": [],
      "stateMutability": "nonpayable",
      "type": "function"
    },
    {
      "inputs": [
        {
          "internalType": "bytes32",
          "name": "role",
          "type": "bytes32"
        },
        {
          "internalType": "address",
          "name": "account",
          "type": "address"
        }
      ],
      "name": "hasRole",
      "outputs": [
        {
          "internalType": "bool",
          "name": "",
          "type": "bool"
        }
      ],
      "stateMutability": "view",
      "type": "function"
    },
    {
      "inputs": [],
      "name": "owner",
      "outputs": [
        {
          "internalType": "address",
          "name": "",
          "type": "address"
        }
      ],
      "stateMutability": "view",
      "type": "function"
    },
    {
      "inputs": [],
      "name": "renounceOwnership",
      "outputs": [],
      "stateMutability": "nonpayable",
      "type": "function"
    },
    {
      "inputs": [
        {
          "internalType": "bytes32",
          "name": "role",
          "type": "bytes32"
        },
        {
          "internalType": "address",
          "name": "account",
          "type": "address"
        }
      ],
      "name": "renounceRole",
      "outputs": [],
      "stateMutability": "nonpayable",
      "type": "function"
    },
    {
      "inputs": [
        {
          "internalType": "bytes32",
          "name": "role",
          "type": "bytes32"
        },
        {
          "internalType": "address",
          "name": "account",
          "type": "address"
        }
      ],
      "name": "revokeRole",
      "outputs": [],
      "stateMutability": "nonpayable",
      "type": "function"
    },
    {
      "inputs": [],
      "name": "stopTrading",
      "outputs": [],
      "stateMutability": "nonpayable",
      "type": "function"
    },
    {
      "inputs": [
        {
          "internalType": "bytes4",
          "name": "interfaceId",
          "type": "bytes4"
        }
      ],
      "name": "supportsInterface",
      "outputs": [
        {
          "internalType": "bool",
          "name": "",
          "type": "bool"
        }
      ],
      "stateMutability": "view",
      "type": "function"
    },
    {
      "inputs": [
        {
          "internalType": "uint256",
          "name": "_amount",
          "type": "uint256"
        }
      ],
      "name": "swapBuy",
      "outputs": [
        {
          "internalType": "bool",
          "name": "",
          "type": "bool"
        }
      ],
      "stateMutability": "nonpayable",
      "type": "function"
    },
    {
      "inputs": [
        {
          "internalType": "uint256",
          "name": "_amount",
          "type": "uint256"
        }
      ],
      "name": "swapSell",
      "outputs": [
        {
          "internalType": "bool",
          "name": "",
          "type": "bool"
        }
      ],
      "stateMutability": "nonpayable",
      "type": "function"
    },
    {
      "inputs": [
        {
          "internalType": "address",
          "name": "newOwner",
          "type": "address"
        }
      ],
      "name": "transferOwnership",
      "outputs": [],
      "stateMutability": "nonpayable",
      "type": "function"
    },
    {
      "inputs": [
        {
          "internalType": "address",
          "name": "_to",
          "type": "address"
        },
        {
          "internalType": "uint256",
          "name": "_amount",
          "type": "uint256"
        }
      ],
      "name": "transferReward",
      "outputs": [],
      "stateMutability": "nonpayable",
      "type": "function"
    },
    {
      "inputs": [],
      "name": "withdrawBitX",
      "outputs": [
        {
          "internalType": "bool",
          "name": "",
          "type": "bool"
        }
      ],
      "stateMutability": "nonpayable",
      "type": "function"
    },
    {
      "inputs": [],
      "name": "withdrawUSDT",
      "outputs": [
        {
          "internalType": "bool",
          "name": "",
          "type": "bool"
        }
      ],
      "stateMutability": "nonpayable",
      "type": "function"
    }
  ],
  "bytecode": "0x608060405234801561001057600080fd5b50611ec2806100206000396000f3fe608060405234801561001057600080fd5b50600436106101da5760003560e01c806375b238fc11610104578063db734665116100a2578063ec1ebd7a11610071578063ec1ebd7a1461040a578063f2fde38b14610412578063f6a3325314610425578063f7618dae1461043857600080fd5b8063db734665146103be578063dd6d3ca7146103c6578063e8aca46a146103ce578063ea19fb61146103e157600080fd5b8063a217fddf116100de578063a217fddf14610388578063b01ce4fd14610390578063c711802c146103a3578063d547741f146103ab57600080fd5b806375b238fc146103295780638da5cb5b1461035057806391d148541461037557600080fd5b8063248a9ca31161017c5780634ce8d8a41161014b5780634ce8d8a4146102fe5780635322888214610311578063715018a6146103195780637185f1631461032157600080fd5b8063248a9ca3146102ad5780632f2ff15d146102d0578063362e496b146102e357806336568abe146102eb57600080fd5b806311b8da00116101b857806311b8da001461023f57806315490ebb14610252578063206b60f91461026557806323bd05591461029a57600080fd5b80630167b65c146101df57806301ffc9a7146102175780630f9c7e811461022a575b600080fd5b6102026101ed366004611b6a565b60ce6020526000908152604090205460ff1681565b60405190151581526020015b60405180910390f35b610202610225366004611c18565b61044b565b61023d610238366004611bd1565b610482565b005b61023d61024d366004611bd1565b61048f565b61023d610260366004611b86565b610554565b61028c7f8502233096d909befbda0999bb8ea2f3a6be3c138b9fbf003752a4c8bce86f6c81565b60405190815260200161020e565b6102026102a8366004611bd1565b61060a565b61028c6102bb366004611bd1565b60009081526097602052604090206001015490565b61023d6102de366004611be9565b610a8a565b610202610ab4565b61023d6102f9366004611be9565b610d47565b61023d61030c366004611c58565b610dc5565b61028c610f5e565b61023d610fe0565b61023d610ff4565b61028c7fa49807205ce4d355092ef5a8a18f56e8913cf4a201fbe287825b095693c2177581565b6033546001600160a01b03165b6040516001600160a01b03909116815260200161020e565b610202610383366004611be9565b611034565b61028c600081565b61023d61039e366004611bd1565b61105f565b61028c61109b565b61023d6103b9366004611be9565b6110cc565b6102026110f1565b60cc5461028c565b61023d6103dc366004611b6a565b61130c565b61035d6103ef366004611b6a565b60cf602052600090815260409020546001600160a01b031681565b60cb5461028c565b61023d610420366004611b6a565b6113a5565b61023d610433366004611bd1565b61141e565b610202610446366004611bd1565b61144e565b60006001600160e01b03198216637965db0b60e01b148061047c57506301ffc9a760e01b6001600160e01b03198316145b92915050565b61048a6116d7565b60cc55565b6104976116d7565b60c9546040516323b872dd60e01b81526001600160a01b03909116906323b872dd906104cb90339030908690600401611d0e565b602060405180830381600087803b1580156104e557600080fd5b505af11580156104f9573d6000803e3d6000fd5b505050506040513d601f19601f8201168201806040525081019061051d9190611bb1565b506040518181527f79b704a32544f12a677346065e16347b14c63f9babc65b59503eb542b535ae439060200160405180910390a150565b7f8502233096d909befbda0999bb8ea2f3a6be3c138b9fbf003752a4c8bce86f6c61057e81611731565b60c95460405163a9059cbb60e01b81526001600160a01b038581166004830152602482018590529091169063a9059cbb90604401602060405180830381600087803b1580156105cc57600080fd5b505af11580156105e0573d6000803e3d6000fd5b505050506040513d601f19601f820116820180604052508101906106049190611bb1565b50505050565b60ca54600090600160a01b900460ff16151560011461066b5760405162461bcd60e51b8152602060048201526018602482015277151c985919481a5cc81b9bdd081cdd185c9d1959081e595d60421b60448201526064015b60405180910390fd5b60c9546040516370a0823160e01b815230600482015283916001600160a01b0316906370a082319060240160206040518083038186803b1580156106ae57600080fd5b505afa1580156106c2573d6000803e3d6000fd5b505050506040513d601f19601f820116820180604052508101906106e69190611c40565b116107335760405162461bcd60e51b815260206004820152601f60248201527f496e73756666696369656e7420416d6f756e7420696e20636f6e7472616374006044820152606401610662565b600061074a60cb548461173b90919063ffffffff16565b60ca546040516370a0823160e01b815233600482015291925082916001600160a01b03909116906370a082319060240160206040518083038186803b15801561079257600080fd5b505afa1580156107a6573d6000803e3d6000fd5b505050506040513d601f19601f820116820180604052508101906107ca9190611c40565b10156108185760405162461bcd60e51b815260206004820152601a60248201527f596f75206861766520496e73756666696369656e7420555344540000000000006044820152606401610662565b33600090815260ce602052604090205460ff1615801561084f575033600090815260cf60205260409020546001600160a01b031615155b1561093257600060648260cc546108669190611de8565b6108709190611dc8565b905061087c8183611e07565b60ca5433600081815260cf6020526040908190205490516323b872dd60e01b81529395506001600160a01b03928316936323b872dd936108c3939216908690600401611d0e565b602060405180830381600087803b1580156108dd57600080fd5b505af11580156108f1573d6000803e3d6000fd5b505050506040513d601f19601f820116820180604052508101906109159190611bb1565b505033600090815260ce60205260409020805460ff191660011790555b60ca546001600160a01b03166323b872dd336109566033546001600160a01b031690565b846040518463ffffffff1660e01b815260040161097593929190611d0e565b602060405180830381600087803b15801561098f57600080fd5b505af11580156109a3573d6000803e3d6000fd5b505050506040513d601f19601f820116820180604052508101906109c79190611bb1565b5060c95460405163a9059cbb60e01b8152336004820152602481018590526001600160a01b039091169063a9059cbb90604401602060405180830381600087803b158015610a1457600080fd5b505af1158015610a28573d6000803e3d6000fd5b505050506040513d601f19601f82011682018060405250810190610a4c9190611bb1565b506040518381527f3e32821836f4caf5b64b2c8c6b460049a9797526960d31502f7575b8da39d5ae906020015b60405180910390a150600192915050565b600082815260976020526040902060010154610aa581611731565b610aaf838361174e565b505050565b6000610abe6116d7565b60ca546040516370a0823160e01b81523060048201526000916001600160a01b0316906370a082319060240160206040518083038186803b158015610b0257600080fd5b505afa158015610b16573d6000803e3d6000fd5b505050506040513d601f19601f82011682018060405250810190610b3a9190611c40565b11610b795760405162461bcd60e51b815260206004820152600f60248201526e62616c616e6365206973207a65726f60881b6044820152606401610662565b60ca5460c9546040516370a0823160e01b81523060048201526001600160a01b039283169263a9059cbb9233929116906370a082319060240160206040518083038186803b158015610bca57600080fd5b505afa158015610bde573d6000803e3d6000fd5b505050506040513d601f19601f82011682018060405250810190610c029190611c40565b6040516001600160e01b031960e085901b1681526001600160a01b0390921660048301526024820152604401602060405180830381600087803b158015610c4857600080fd5b505af1158015610c5c573d6000803e3d6000fd5b505050506040513d601f19601f82011682018060405250810190610c809190611bb1565b5060ca546040516370a0823160e01b81523060048201527f47cee97cb7acd717b3c0aa1435d004cd5b3c8c57d70dbceb4e4458bbd60e39d4916001600160a01b03169081906370a08231906024015b60206040518083038186803b158015610ce757600080fd5b505afa158015610cfb573d6000803e3d6000fd5b505050506040513d601f19601f82011682018060405250810190610d1f9190611c40565b604080516001600160a01b03909316835260208301919091520160405180910390a150600190565b6001600160a01b0381163314610db75760405162461bcd60e51b815260206004820152602f60248201527f416363657373436f6e74726f6c3a2063616e206f6e6c792072656e6f756e636560448201526e103937b632b9903337b91039b2b63360891b6064820152608401610662565b610dc182826117d4565b5050565b600054610100900460ff1615808015610de55750600054600160ff909116105b80610dff5750303b158015610dff575060005460ff166001145b610e625760405162461bcd60e51b815260206004820152602e60248201527f496e697469616c697a61626c653a20636f6e747261637420697320616c72656160448201526d191e481a5b9a5d1a585b1a5e995960921b6064820152608401610662565b6000805460ff191660011790558015610e85576000805461ff0019166101001790555b610e8d61183b565b610e9561186a565b610ea0600033611891565b610eca7fa49807205ce4d355092ef5a8a18f56e8913cf4a201fbe287825b095693c2177533610a8a565b60cb84905560c980546001600160a01b038085166001600160a01b03199092169190911790915560ca80546001600160a81b03191691851691909117600160a01b179055600a60cc558015610604576000805461ff0019169055604051600181527f7f26b83ff96e1f2b6a682f133852f6798a09c465da95921460cefb38474024989060200160405180910390a150505050565b60c9546040516370a0823160e01b81523060048201526000916001600160a01b0316906370a08231906024015b60206040518083038186803b158015610fa357600080fd5b505afa158015610fb7573d6000803e3d6000fd5b505050506040513d601f19601f82011682018060405250810190610fdb9190611c40565b905090565b610fe86116d7565b610ff2600061189b565b565b610ffc6116d7565b60ca805460ff60a01b191690556040517f2f52f4f16ece5e1dd274488a8ec73e0d6093a4fc012a01873a0b3283a704917290600090a1565b60009182526097602090815260408084206001600160a01b0393909316845291905290205460ff1690565b6110676116d7565b60ca546040516323b872dd60e01b81526001600160a01b03909116906323b872dd906104cb90339030908690600401611d0e565b60ca546040516370a0823160e01b81523060048201526000916001600160a01b0316906370a0823190602401610f8b565b6000828152609760205260409020600101546110e781611731565b610aaf83836117d4565b60006110fb6116d7565b60c9546040516370a0823160e01b81523060048201526000916001600160a01b0316906370a082319060240160206040518083038186803b15801561113f57600080fd5b505afa158015611153573d6000803e3d6000fd5b505050506040513d601f19601f820116820180604052508101906111779190611c40565b116111b65760405162461bcd60e51b815260206004820152600f60248201526e62616c616e6365206973207a65726f60881b6044820152606401610662565b60c9546040516370a0823160e01b81523060048201526001600160a01b039091169063a9059cbb90339083906370a082319060240160206040518083038186803b15801561120357600080fd5b505afa158015611217573d6000803e3d6000fd5b505050506040513d601f19601f8201168201806040525081019061123b9190611c40565b6040516001600160e01b031960e085901b1681526001600160a01b0390921660048301526024820152604401602060405180830381600087803b15801561128157600080fd5b505af1158015611295573d6000803e3d6000fd5b505050506040513d601f19601f820116820180604052508101906112b99190611bb1565b5060c9546040516370a0823160e01b81523060048201527f47cee97cb7acd717b3c0aa1435d004cd5b3c8c57d70dbceb4e4458bbd60e39d4916001600160a01b03169081906370a0823190602401610ccf565b33600090815260cf60205260409020546001600160a01b0316156113655760405162461bcd60e51b815260206004820152601060248201526f105b1c9958591e481c995999995c995960821b6044820152606401610662565b33600090815260cf6020908152604080832080546001600160a01b0319166001600160a01b03959095169490941790935560ce905220805460ff19169055565b6113ad6116d7565b6001600160a01b0381166114125760405162461bcd60e51b815260206004820152602660248201527f4f776e61626c653a206e6577206f776e657220697320746865207a65726f206160448201526564647265737360d01b6064820152608401610662565b61141b8161189b565b50565b7fa49807205ce4d355092ef5a8a18f56e8913cf4a201fbe287825b095693c2177561144881611731565b5060cb55565b60ca54600090600160a01b900460ff1615156001146114aa5760405162461bcd60e51b8152602060048201526018602482015277151c985919481a5cc81b9bdd081cdd185c9d1959081e595d60421b6044820152606401610662565b60c9546040516370a0823160e01b815230600482015283916001600160a01b0316906370a082319060240160206040518083038186803b1580156114ed57600080fd5b505afa158015611501573d6000803e3d6000fd5b505050506040513d601f19601f820116820180604052508101906115259190611c40565b116115725760405162461bcd60e51b815260206004820152601f60248201527f496e73756666696369656e7420416d6f756e7420696e20636f6e7472616374006044820152606401610662565b600061158960cb548461173b90919063ffffffff16565b60c9549091506001600160a01b03166323b872dd336115b06033546001600160a01b031690565b866040518463ffffffff1660e01b81526004016115cf93929190611d0e565b602060405180830381600087803b1580156115e957600080fd5b505af11580156115fd573d6000803e3d6000fd5b505050506040513d601f19601f820116820180604052508101906116219190611bb1565b5060ca5460405163a9059cbb60e01b8152336004820152602481018390526001600160a01b039091169063a9059cbb90604401602060405180830381600087803b15801561166e57600080fd5b505af1158015611682573d6000803e3d6000fd5b505050506040513d601f19601f820116820180604052508101906116a69190611bb1565b506040518381527f522881958b3c4a6fc0840ad3b7fb947b881edc28c004245a62541647422ade9790602001610a79565b6033546001600160a01b03163314610ff25760405162461bcd60e51b815260206004820181905260248201527f4f776e61626c653a2063616c6c6572206973206e6f7420746865206f776e65726044820152606401610662565b61141b81336118ed565b60006117478284611de8565b9392505050565b6117588282611034565b610dc15760008281526097602090815260408083206001600160a01b03851684529091529020805460ff191660011790556117903390565b6001600160a01b0316816001600160a01b0316837f2f8788117e7eff1d82e926ec794901d17c78024a50270940304540a733656f0d60405160405180910390a45050565b6117de8282611034565b15610dc15760008281526097602090815260408083206001600160a01b0385168085529252808320805460ff1916905551339285917ff6391f5c32d9c69d2a47ea670b442974b53935d1edc7fd64eb21e047a839171b9190a45050565b600054610100900460ff166118625760405162461bcd60e51b815260040161066290611d65565b610ff2611946565b600054610100900460ff16610ff25760405162461bcd60e51b815260040161066290611d65565b610dc1828261174e565b603380546001600160a01b038381166001600160a01b0319831681179093556040519116919082907f8be0079c531659141344cd1fd0a4f28419497f9722a3daafe3b4186f6b6457e090600090a35050565b6118f78282611034565b610dc15761190481611976565b61190f836020611988565b604051602001611920929190611c99565b60408051601f198184030181529082905262461bcd60e51b825261066291600401611d32565b600054610100900460ff1661196d5760405162461bcd60e51b815260040161066290611d65565b610ff23361189b565b606061047c6001600160a01b03831660145b60606000611997836002611de8565b6119a2906002611db0565b67ffffffffffffffff8111156119c857634e487b7160e01b600052604160045260246000fd5b6040519080825280601f01601f1916602001820160405280156119f2576020820181803683370190505b509050600360fc1b81600081518110611a1b57634e487b7160e01b600052603260045260246000fd5b60200101906001600160f81b031916908160001a905350600f60fb1b81600181518110611a5857634e487b7160e01b600052603260045260246000fd5b60200101906001600160f81b031916908160001a9053506000611a7c846002611de8565b611a87906001611db0565b90505b6001811115611b1b576f181899199a1a9b1b9c1cb0b131b232b360811b85600f1660108110611ac957634e487b7160e01b600052603260045260246000fd5b1a60f81b828281518110611aed57634e487b7160e01b600052603260045260246000fd5b60200101906001600160f81b031916908160001a90535060049490941c93611b1481611e4a565b9050611a8a565b5083156117475760405162461bcd60e51b815260206004820181905260248201527f537472696e67733a20686578206c656e67746820696e73756666696369656e746044820152606401610662565b600060208284031215611b7b578081fd5b813561174781611e77565b60008060408385031215611b98578081fd5b8235611ba381611e77565b946020939093013593505050565b600060208284031215611bc2578081fd5b81518015158114611747578182fd5b600060208284031215611be2578081fd5b5035919050565b60008060408385031215611bfb578182fd5b823591506020830135611c0d81611e77565b809150509250929050565b600060208284031215611c29578081fd5b81356001600160e01b031981168114611747578182fd5b600060208284031215611c51578081fd5b5051919050565b600080600060608486031215611c6c578081fd5b833592506020840135611c7e81611e77565b91506040840135611c8e81611e77565b809150509250925092565b7f416363657373436f6e74726f6c3a206163636f756e7420000000000000000000815260008351611cd1816017850160208801611e1e565b7001034b99036b4b9b9b4b733903937b6329607d1b6017918401918201528351611d02816028840160208801611e1e565b01602801949350505050565b6001600160a01b039384168152919092166020820152604081019190915260600190565b6020815260008251806020840152611d51816040850160208701611e1e565b601f01601f19169190910160400192915050565b6020808252602b908201527f496e697469616c697a61626c653a20636f6e7472616374206973206e6f74206960408201526a6e697469616c697a696e6760a81b606082015260800190565b60008219821115611dc357611dc3611e61565b500190565b600082611de357634e487b7160e01b81526012600452602481fd5b500490565b6000816000190483118215151615611e0257611e02611e61565b500290565b600082821015611e1957611e19611e61565b500390565b60005b83811015611e39578181015183820152602001611e21565b838111156106045750506000910152565b600081611e5957611e59611e61565b506000190190565b634e487b7160e01b600052601160045260246000fd5b6001600160a01b038116811461141b57600080fdfea26469706673582212205735d5ebf6eadfe7945e9643af5e72208433c89570b5097999e19c242c44d8bc64736f6c63430008040033",
  "linkReferences": {},
  "deployedLinkReferences": {}
}