{
  "_format": "hh-sol-artifact-1",
  "contractName": "BitXStaking",
  "sourceName": "contracts/Stake.sol",
  "address": "0x3C7b0C61C163993d625A83dC6894Df424A281c9C",
  "abi": [
    {
      "inputs": [
        {
          "internalType": "contract IERC20",
          "name": "_bxg",
          "type": "address"
        },
        {
          "internalType": "contract IBitXGoldSwap",
          "name": "_pool",
          "type": "address"
        }
      ],
      "stateMutability": "nonpayable",
      "type": "constructor"
    },
    {
      "anonymous": false,
      "inputs": [
        {
          "indexed": false,
          "internalType": "address",
          "name": "staker",
          "type": "address"
        },
        {
          "indexed": false,
          "internalType": "uint256",
          "name": "amountClaimed",
          "type": "uint256"
        }
      ],
      "name": "Claim",
      "type": "event"
    },
    {
      "anonymous": false,
      "inputs": [
        {
          "indexed": true,
          "internalType": "address",
          "name": "previousOwner",
          "type": "address"
        },
        {
          "indexed": true,
          "internalType": "address",
          "name": "newOwner",
          "type": "address"
        }
      ],
      "name": "OwnershipTransferred",
      "type": "event"
    },
    {
      "anonymous": false,
      "inputs": [
        {
          "indexed": false,
          "internalType": "uint256",
          "name": "referralReward1",
          "type": "uint256"
        },
        {
          "indexed": false,
          "internalType": "uint256",
          "name": "referralReward2",
          "type": "uint256"
        },
        {
          "indexed": false,
          "internalType": "uint256",
          "name": "referralReward3",
          "type": "uint256"
        }
      ],
      "name": "ReferralsAwarded",
      "type": "event"
    },
    {
      "anonymous": false,
      "inputs": [
        {
          "indexed": false,
          "internalType": "address",
          "name": "staker",
          "type": "address"
        },
        {
          "indexed": false,
          "internalType": "uint256",
          "name": "amountStaked",
          "type": "uint256"
        }
      ],
      "name": "Stake",
      "type": "event"
    },
    {
      "anonymous": false,
      "inputs": [
        {
          "indexed": false,
          "internalType": "address",
          "name": "staker",
          "type": "address"
        },
        {
          "indexed": false,
          "internalType": "uint256",
          "name": "amountUnstaked",
          "type": "uint256"
        }
      ],
      "name": "Unstake",
      "type": "event"
    },
    {
      "inputs": [
        {
          "internalType": "address",
          "name": "",
          "type": "address"
        }
      ],
      "name": "StakedReferrals",
      "outputs": [
        {
          "internalType": "address",
          "name": "firstReferral",
          "type": "address"
        },
        {
          "internalType": "address",
          "name": "secondReferral",
          "type": "address"
        },
        {
          "internalType": "address",
          "name": "thirdReferral",
          "type": "address"
        }
      ],
      "stateMutability": "view",
      "type": "function"
    },
    {
      "inputs": [
        {
          "internalType": "address",
          "name": "",
          "type": "address"
        },
        {
          "internalType": "uint256",
          "name": "",
          "type": "uint256"
        }
      ],
      "name": "StakedTokens",
      "outputs": [
        {
          "internalType": "uint256",
          "name": "stakedId",
          "type": "uint256"
        },
        {
          "internalType": "uint256",
          "name": "startingTime",
          "type": "uint256"
        },
        {
          "internalType": "uint256",
          "name": "rewardsEarned",
          "type": "uint256"
        },
        {
          "internalType": "uint256",
          "name": "amountStaked",
          "type": "uint256"
        }
      ],
      "stateMutability": "view",
      "type": "function"
    },
    {
      "inputs": [
        {
          "internalType": "address",
          "name": "",
          "type": "address"
        }
      ],
      "name": "Staker",
      "outputs": [
        {
          "internalType": "address",
          "name": "staker",
          "type": "address"
        },
        {
          "internalType": "uint256",
          "name": "amountStaked",
          "type": "uint256"
        },
        {
          "internalType": "uint256",
          "name": "tokensStaked",
          "type": "uint256"
        },
        {
          "internalType": "bool",
          "name": "referralsAdded",
          "type": "bool"
        },
        {
          "internalType": "bool",
          "name": "referralsRewarded",
          "type": "bool"
        }
      ],
      "stateMutability": "view",
      "type": "function"
    },
    {
      "inputs": [
        {
          "internalType": "address[]",
          "name": "_referrals",
          "type": "address[]"
        },
        {
          "internalType": "address",
          "name": "staker",
          "type": "address"
        }
      ],
      "name": "addReferral",
      "outputs": [],
      "stateMutability": "nonpayable",
      "type": "function"
    },
    {
      "inputs": [],
      "name": "bxg",
      "outputs": [
        {
          "internalType": "contract IERC20",
          "name": "",
          "type": "address"
        }
      ],
      "stateMutability": "view",
      "type": "function"
    },
    {
      "inputs": [
        {
          "internalType": "uint256",
          "name": "_amount",
          "type": "uint256"
        },
        {
          "internalType": "uint256",
          "name": "_timeStaked",
          "type": "uint256"
        }
      ],
      "name": "calculateRewards",
      "outputs": [
        {
          "internalType": "uint256",
          "name": "",
          "type": "uint256"
        }
      ],
      "stateMutability": "view",
      "type": "function"
    },
    {
      "inputs": [],
      "name": "owner",
      "outputs": [
        {
          "internalType": "address",
          "name": "",
          "type": "address"
        }
      ],
      "stateMutability": "view",
      "type": "function"
    },
    {
      "inputs": [],
      "name": "renounceOwnership",
      "outputs": [],
      "stateMutability": "nonpayable",
      "type": "function"
    },
    {
      "inputs": [
        {
          "internalType": "uint256",
          "name": "_amount",
          "type": "uint256"
        }
      ],
      "name": "stake",
      "outputs": [
        {
          "internalType": "uint256",
          "name": "",
          "type": "uint256"
        }
      ],
      "stateMutability": "nonpayable",
      "type": "function"
    },
    {
      "inputs": [
        {
          "internalType": "address",
          "name": "newOwner",
          "type": "address"
        }
      ],
      "name": "transferOwnership",
      "outputs": [],
      "stateMutability": "nonpayable",
      "type": "function"
    },
    {
      "inputs": [
        {
          "internalType": "uint256",
          "name": "_amount",
          "type": "uint256"
        },
        {
          "internalType": "uint256",
          "name": "_tokensId",
          "type": "uint256"
        }
      ],
      "name": "unStake",
      "outputs": [],
      "stateMutability": "nonpayable",
      "type": "function"
    },
    {
      "inputs": [
        {
          "internalType": "uint256",
          "name": "_amount",
          "type": "uint256"
        },
        {
          "internalType": "uint256",
          "name": "_tokensId",
          "type": "uint256"
        }
      ],
      "name": "withdraw",
      "outputs": [],
      "stateMutability": "nonpayable",
      "type": "function"
    }
  ],
  "bytecode": "0x60a060405262278d0060045562278d006005556201518060065560036007553480156200002b57600080fd5b50604051620017ca380380620017ca8339810160408190526200004e91620000e8565b60016000556200005e3362000096565b60609190911b6001600160601b031916608052600280546001600160a01b0319166001600160a01b039092169190911790556200013f565b600180546001600160a01b038381166001600160a01b0319831681179093556040519116919082907f8be0079c531659141344cd1fd0a4f28419497f9722a3daafe3b4186f6b6457e090600090a35050565b60008060408385031215620000fb578182fd5b8251620001088162000126565b60208401519092506200011b8162000126565b809150509250929050565b6001600160a01b03811681146200013c57600080fd5b50565b60805160601c61165e6200016c600039600081816102a6015281816104130152610ac7015261165e6000f3fe608060405234801561001057600080fd5b50600436106100b45760003560e01c8063715018a611610071578063715018a6146101e05780638da5cb5b146101e8578063a694fc3a1461020d578063b4e929d414610220578063c1931d20146102a1578063f2fde38b146102c857600080fd5b806307ebe4cc146100b957806332f23b4c1461011e578063372caeb814610184578063441a3e701461019957806348a88706146101ac57806356efeffd146101cd575b600080fd5b6100f96100c73660046113c8565b600a60209081526000928352604080842090915290825290208054600182015460028301546003909301549192909184565b6040805194855260208501939093529183015260608201526080015b60405180910390f35b61015a61012c3660046113a7565b6009602052600090815260409020805460018201546002909201546001600160a01b03918216928216911683565b604080516001600160a01b0394851681529284166020840152921691810191909152606001610115565b610197610192366004611502565b6102db565b005b6101976101a7366004611502565b610586565b6101bf6101ba366004611502565b610858565b604051908152602001610115565b6101976101db3660046113f1565b61089c565b6101976109f1565b6001546001600160a01b03165b6040516001600160a01b039091168152602001610115565b6101bf61021b3660046114ea565b610a05565b61026b61022e3660046113a7565b60086020526000908152604090208054600182015460028301546003909301546001600160a01b0390921692909160ff8082169161010090041685565b604080516001600160a01b039096168652602086019490945292840191909152151560608301521515608082015260a001610115565b6101f57f000000000000000000000000000000000000000000000000000000000000000081565b6101976102d63660046113a7565b610d37565b600260005414156103075760405162461bcd60e51b81526004016102fe9061153c565b60405180910390fd5b60026000908155600454338252600a602090815260408084208585529091529091206001015461033790426115ca565b106103845760405162461bcd60e51b815260206004820152601f60248201527f596f7572207265776172642069732072656164792c20636c61696d206974210060448201526064016102fe565b336000908152600a602090815260408083208484529091529020600301548211156103fc5760405162461bcd60e51b815260206004820152602260248201527f416d6f756e74206265696e6720756e7374616b656420697320746f6f206d7563604482015261682160f01b60648201526084016102fe565b60405163a9059cbb60e01b81526001600160a01b037f0000000000000000000000000000000000000000000000000000000000000000169063a9059cbb9061044a9033908690600401611523565b602060405180830381600087803b15801561046457600080fd5b505af1158015610478573d6000803e3d6000fd5b505050506040513d601f19601f8201168201806040525081019061049c91906114ca565b50336000908152600860205260409020600101546104bb9083906115ca565b33600090815260086020908152604080832060010193909355600a8152828220848352905220600301546104f09083906115ca565b336000908152600a60209081526040808320858452909152902060030181905561054457336000908152600a6020908152604080832084845290915281208181556001810182905560028101829055600301555b7f85082129d87b2fe11527cb1b3b7a520aeb5aa6913f88a3d8757fe40d1db02fdd3383604051610575929190611523565b60405180910390a150506001600055565b600260005414156105a95760405162461bcd60e51b81526004016102fe9061153c565b60026000908155338152600a602090815260408083208484529091529020600301548211156106265760405162461bcd60e51b8152602060048201526024808201527f416d6f756e74206265696e67207769746864726177656e20697320746f6f206d6044820152637563682160e01b60648201526084016102fe565b336000908152600a6020908152604080832084845290915281206001015461064e90426115ca565b90506004548110156106b15760405162461bcd60e51b815260206004820152602660248201527f4974206861736e2774206265656e206f6e65206d6f6e74682073696e6365207360448201526574616b696e6760d01b60648201526084016102fe565b60006106bd8483610858565b33600090815260086020526040902060030154909150610100900460ff16610709576106e93385610db0565b336000908152600860205260409020600301805461ff0019166101001790555b336000908152600860205260409020600101546107279085906115ca565b33600090815260086020908152604080832060010193909355600a81528282208683529052206003015461075c9085906115ca565b336000908152600a6020908152604080832087845290915290206003018190556107b057336000908152600a6020908152604080832086845290915281208181556001810182905560028101829055600301555b6002546040516315490ebb60e01b81526001600160a01b03909116906315490ebb906107e29033908590600401611523565b600060405180830381600087803b1580156107fc57600080fd5b505af1158015610810573d6000803e3d6000fd5b505050507f47cee97cb7acd717b3c0aa1435d004cd5b3c8c57d70dbceb4e4458bbd60e39d43385604051610845929190611523565b60405180910390a1505060016000555050565b60008060045483610869919061158b565b905060008160075461087b91906115ab565b9050606461088982876115ab565b610893919061158b565b95945050505050565b6108a46112df565b816000815181106108c557634e487b7160e01b600052603260045260246000fd5b602002602001015160096000836001600160a01b03166001600160a01b0316815260200190815260200160002060000160006101000a8154816001600160a01b0302191690836001600160a01b031602179055508160018151811061093a57634e487b7160e01b600052603260045260246000fd5b602002602001015160096000836001600160a01b03166001600160a01b0316815260200190815260200160002060010160006101000a8154816001600160a01b0302191690836001600160a01b03160217905550816002815181106109af57634e487b7160e01b600052603260045260246000fd5b6020908102919091018101516001600160a01b0392831660009081526009909252604090912060020180546001600160a01b0319169290911691909117905550565b6109f96112df565b610a036000611339565b565b600060026000541415610a2a5760405162461bcd60e51b81526004016102fe9061153c565b60026000908155338152600860205260409020600101546801158e460913d0000090610a57908490611573565b1015610aa55760405162461bcd60e51b815260206004820181905260248201527f416d6f756e742073686f756c642062652061746c65617374203230204258472160448201526064016102fe565b6040516323b872dd60e01b8152336004820152306024820152604481018390527f00000000000000000000000000000000000000000000000000000000000000006001600160a01b0316906323b872dd90606401602060405180830381600087803b158015610b1357600080fd5b505af1158015610b27573d6000803e3d6000fd5b505050506040513d601f19601f82011682018060405250810190610b4b91906114ca565b50336000908152600960205260408120546001600160a01b031615610b71576001610b74565b60005b336000818152600860205260409020549192506001600160a01b0390911614610c2e576040805160a081018252338082526020808301878152600184860181815287151560608701908152600060808801818152968152600890955296909320945185546001600160a01b03919091166001600160a01b0319909116178555905190840155516002830155915160039091018054925115156101000261ff00199215159290921661ffff1990931692909217179055610c7a565b33600090815260086020526040902060010154610c4c908490611573565b33600090815260086020526040812060018101929092556002909101805491610c74836115e1565b91905055505b604080516080810182523360008181526008602090815284822060029081015480865242838701908152868801858152606088018c8152878752600a8652898720938752929094529387902095518655925160018601559051908401555160039092019190915590517febedb8b3c678666e7f36970bc8f57abf6d8fa2e828c0da91ea5b75bf68ed101a91610d10918690611523565b60405180910390a15050336000908152600860205260409020600201546001600055919050565b610d3f6112df565b6001600160a01b038116610da45760405162461bcd60e51b815260206004820152602660248201527f4f776e61626c653a206e6577206f776e657220697320746865207a65726f206160448201526564647265737360d01b60648201526084016102fe565b610dad81611339565b50565b6001600160a01b038281166000908152600960205260408120549091829182911615801590610dfa57506001600160a01b0385811660009081526009602052604090206001015416155b8015610e2157506001600160a01b0385811660009081526009602052604090206002015416155b15610ebc576064610e338560016115ab565b610e3d919061158b565b6002546001600160a01b03878116600090815260096020526040908190205490516315490ebb60e01b8152939650918116926315490ebb92610e859216908790600401611523565b600060405180830381600087803b158015610e9f57600080fd5b505af1158015610eb3573d6000803e3d6000fd5b50505050611297565b6001600160a01b038581166000908152600960205260409020541615801590610f0157506001600160a01b038581166000908152600960205260409020600101541615155b8015610f2857506001600160a01b0385811660009081526009602052604090206002015416155b1561103e5768056bc75e2d63100000610f49856709b6e64a8ec600006115ab565b610f53919061158b565b925068056bc75e2d63100000610f7185670429d069189e00006115ab565b610f7b919061158b565b6002546001600160a01b03878116600090815260096020526040908190205490516315490ebb60e01b8152939550918116926315490ebb92610fc39216908790600401611523565b600060405180830381600087803b158015610fdd57600080fd5b505af1158015610ff1573d6000803e3d6000fd5b50506002546001600160a01b03888116600090815260096020526040908190206001015490516315490ebb60e01b815292821694506315490ebb9350610e85929116908690600401611523565b6001600160a01b03858116600090815260096020526040902054161580159061108357506001600160a01b038581166000908152600960205260409020600101541615155b80156110ab57506001600160a01b038581166000908152600960205260409020600201541615155b156112975768056bc75e2d631000006110cc856709b6e64a8ec600006115ab565b6110d6919061158b565b925068056bc75e2d631000006110f4856702c68af0bb1400006115ab565b6110fe919061158b565b915068056bc75e2d6310000061111c8567016345785d8a00006115ab565b611126919061158b565b6002546001600160a01b03878116600090815260096020526040908190205490516315490ebb60e01b8152939450918116926315490ebb9261116e9216908790600401611523565b600060405180830381600087803b15801561118857600080fd5b505af115801561119c573d6000803e3d6000fd5b50506002546001600160a01b03888116600090815260096020526040908190206001015490516315490ebb60e01b815292821694506315490ebb93506111e9929116908690600401611523565b600060405180830381600087803b15801561120357600080fd5b505af1158015611217573d6000803e3d6000fd5b5050600280546001600160a01b03898116600090815260096020526040908190209093015492516315490ebb60e01b815291811694506315490ebb93506112649216908590600401611523565b600060405180830381600087803b15801561127e57600080fd5b505af1158015611292573d6000803e3d6000fd5b505050505b60408051848152602081018490529081018290527f0e59b137b474114b39e6b70a416a41e1a1278ec2dfad0261d6d9ad2621635bbb9060600160405180910390a15050505050565b6001546001600160a01b03163314610a035760405162461bcd60e51b815260206004820181905260248201527f4f776e61626c653a2063616c6c6572206973206e6f7420746865206f776e657260448201526064016102fe565b600180546001600160a01b038381166001600160a01b0319831681179093556040519116919082907f8be0079c531659141344cd1fd0a4f28419497f9722a3daafe3b4186f6b6457e090600090a35050565b80356001600160a01b03811681146113a257600080fd5b919050565b6000602082840312156113b8578081fd5b6113c18261138b565b9392505050565b600080604083850312156113da578081fd5b6113e38361138b565b946020939093013593505050565b60008060408385031215611403578182fd5b823567ffffffffffffffff8082111561141a578384fd5b818501915085601f83011261142d578384fd5b813560208282111561144157611441611612565b8160051b604051601f19603f8301168101818110868211171561146657611466611612565b604052838152828101945085830182870184018b1015611484578889fd5b8896505b848710156114ad576114998161138b565b865260019690960195948301948301611488565b5096506114bd905087820161138b565b9450505050509250929050565b6000602082840312156114db578081fd5b815180151581146113c1578182fd5b6000602082840312156114fb578081fd5b5035919050565b60008060408385031215611514578182fd5b50508035926020909101359150565b6001600160a01b03929092168252602082015260400190565b6020808252601f908201527f5265656e7472616e637947756172643a207265656e7472616e742063616c6c00604082015260600190565b60008219821115611586576115866115fc565b500190565b6000826115a657634e487b7160e01b81526012600452602481fd5b500490565b60008160001904831182151516156115c5576115c56115fc565b500290565b6000828210156115dc576115dc6115fc565b500390565b60006000198214156115f5576115f56115fc565b5060010190565b634e487b7160e01b600052601160045260246000fd5b634e487b7160e01b600052604160045260246000fdfea2646970667358221220088e9d74299256816803999db177cb5705d0309794cb68b22d6d95b9aa88267a64736f6c63430008040033",
  "linkReferences": {},
  "deployedLinkReferences": {}
}