{
  "_format": "hh-sol-artifact-1",
  "contractName": "BitXStaking",
  "address": "0xB46A4bFb02c69D39CF557463A6C8eA7E7D223353",
  "sourceName": "src/backend/contracts/BitXStaking.sol",
  "abi": [
    {
      "anonymous": false,
      "inputs": [
        {
          "indexed": false,
          "internalType": "address",
          "name": "staker",
          "type": "address"
        },
        {
          "indexed": false,
          "internalType": "uint256",
          "name": "amountClaimed",
          "type": "uint256"
        }
      ],
      "name": "Claim",
      "type": "event"
    },
    {
      "anonymous": false,
      "inputs": [
        {
          "indexed": false,
          "internalType": "uint8",
          "name": "version",
          "type": "uint8"
        }
      ],
      "name": "Initialized",
      "type": "event"
    },
    {
      "anonymous": false,
      "inputs": [
        {
          "indexed": true,
          "internalType": "address",
          "name": "previousOwner",
          "type": "address"
        },
        {
          "indexed": true,
          "internalType": "address",
          "name": "newOwner",
          "type": "address"
        }
      ],
      "name": "OwnershipTransferred",
      "type": "event"
    },
    {
      "anonymous": false,
      "inputs": [
        {
          "indexed": false,
          "internalType": "uint256",
          "name": "referralReward1",
          "type": "uint256"
        },
        {
          "indexed": false,
          "internalType": "uint256",
          "name": "referralReward2",
          "type": "uint256"
        },
        {
          "indexed": false,
          "internalType": "uint256",
          "name": "referralReward3",
          "type": "uint256"
        }
      ],
      "name": "ReferralsAwarded",
      "type": "event"
    },
    {
      "anonymous": false,
      "inputs": [
        {
          "indexed": false,
          "internalType": "address",
          "name": "staker",
          "type": "address"
        },
        {
          "indexed": false,
          "internalType": "uint256",
          "name": "amountStaked",
          "type": "uint256"
        },
        {
          "indexed": false,
          "internalType": "uint256",
          "name": "stakedId",
          "type": "uint256"
        }
      ],
      "name": "Stake",
      "type": "event"
    },
    {
      "anonymous": false,
      "inputs": [
        {
          "indexed": false,
          "internalType": "address",
          "name": "staker",
          "type": "address"
        },
        {
          "indexed": false,
          "internalType": "uint256",
          "name": "amountUnstaked",
          "type": "uint256"
        }
      ],
      "name": "Unstake",
      "type": "event"
    },
    {
      "inputs": [
        {
          "internalType": "address",
          "name": "",
          "type": "address"
        }
      ],
      "name": "StakedReferrals",
      "outputs": [
        {
          "internalType": "address",
          "name": "firstReferral",
          "type": "address"
        },
        {
          "internalType": "address",
          "name": "secondReferral",
          "type": "address"
        },
        {
          "internalType": "address",
          "name": "thirdReferral",
          "type": "address"
        }
      ],
      "stateMutability": "view",
      "type": "function"
    },
    {
      "inputs": [
        {
          "internalType": "address",
          "name": "",
          "type": "address"
        },
        {
          "internalType": "uint256",
          "name": "",
          "type": "uint256"
        }
      ],
      "name": "StakedTokens",
      "outputs": [
        {
          "internalType": "uint256",
          "name": "stakedId",
          "type": "uint256"
        },
        {
          "internalType": "uint256",
          "name": "startingTime",
          "type": "uint256"
        },
        {
          "internalType": "uint256",
          "name": "rewardsEarned",
          "type": "uint256"
        },
        {
          "internalType": "uint256",
          "name": "amountStaked",
          "type": "uint256"
        }
      ],
      "stateMutability": "view",
      "type": "function"
    },
    {
      "inputs": [
        {
          "internalType": "address",
          "name": "",
          "type": "address"
        }
      ],
      "name": "Staker",
      "outputs": [
        {
          "internalType": "address",
          "name": "staker",
          "type": "address"
        },
        {
          "internalType": "uint256",
          "name": "amountStaked",
          "type": "uint256"
        },
        {
          "internalType": "uint256",
          "name": "tokensStaked",
          "type": "uint256"
        },
        {
          "internalType": "bool",
          "name": "referralsAdded",
          "type": "bool"
        },
        {
          "internalType": "bool",
          "name": "referralsRewarded",
          "type": "bool"
        }
      ],
      "stateMutability": "view",
      "type": "function"
    },
    {
      "inputs": [
        {
          "internalType": "contract IERC20",
          "name": "_bxg",
          "type": "address"
        },
        {
          "internalType": "contract IBitXGoldSwap",
          "name": "_pool",
          "type": "address"
        }
      ],
      "name": "__BitXStaking_init",
      "outputs": [],
      "stateMutability": "nonpayable",
      "type": "function"
    },
    {
      "inputs": [
        {
          "internalType": "address[]",
          "name": "_referrals",
          "type": "address[]"
        },
        {
          "internalType": "address",
          "name": "staker",
          "type": "address"
        }
      ],
      "name": "addReferral",
      "outputs": [],
      "stateMutability": "nonpayable",
      "type": "function"
    },
    {
      "inputs": [],
      "name": "bxg",
      "outputs": [
        {
          "internalType": "contract IERC20",
          "name": "",
          "type": "address"
        }
      ],
      "stateMutability": "view",
      "type": "function"
    },
    {
      "inputs": [
        {
          "internalType": "uint256",
          "name": "_amount",
          "type": "uint256"
        },
        {
          "internalType": "uint256",
          "name": "_timeStaked",
          "type": "uint256"
        }
      ],
      "name": "calculateRewards",
      "outputs": [
        {
          "internalType": "uint256",
          "name": "",
          "type": "uint256"
        }
      ],
      "stateMutability": "view",
      "type": "function"
    },
    {
      "inputs": [],
      "name": "owner",
      "outputs": [
        {
          "internalType": "address",
          "name": "",
          "type": "address"
        }
      ],
      "stateMutability": "view",
      "type": "function"
    },
    {
      "inputs": [],
      "name": "renounceOwnership",
      "outputs": [],
      "stateMutability": "nonpayable",
      "type": "function"
    },
    {
      "inputs": [
        {
          "internalType": "uint256",
          "name": "_amount",
          "type": "uint256"
        }
      ],
      "name": "stake",
      "outputs": [
        {
          "internalType": "uint256",
          "name": "",
          "type": "uint256"
        }
      ],
      "stateMutability": "nonpayable",
      "type": "function"
    },
    {
      "inputs": [
        {
          "internalType": "address",
          "name": "newOwner",
          "type": "address"
        }
      ],
      "name": "transferOwnership",
      "outputs": [],
      "stateMutability": "nonpayable",
      "type": "function"
    },
    {
      "inputs": [
        {
          "internalType": "uint256",
          "name": "_amount",
          "type": "uint256"
        },
        {
          "internalType": "uint256",
          "name": "_tokensId",
          "type": "uint256"
        }
      ],
      "name": "unStake",
      "outputs": [],
      "stateMutability": "nonpayable",
      "type": "function"
    },
    {
      "inputs": [
        {
          "internalType": "uint256",
          "name": "_amount",
          "type": "uint256"
        },
        {
          "internalType": "uint256",
          "name": "_tokensId",
          "type": "uint256"
        }
      ],
      "name": "withdraw",
      "outputs": [],
      "stateMutability": "nonpayable",
      "type": "function"
    }
  ],
  "bytecode": "0x608060405234801561001057600080fd5b50611944806100206000396000f3fe608060405234801561001057600080fd5b50600436106100cf5760003560e01c806356efeffd1161008c578063a694fc3a11610066578063a694fc3a1461023b578063b4e929d41461024e578063c1931d20146102cf578063f2fde38b146102e257600080fd5b806356efeffd146101fb578063715018a61461020e5780638da5cb5b1461021657600080fd5b806307ebe4cc146100d457806332f23b4c14610139578063372caeb81461019f578063441a3e70146101b457806348a88706146101c75780634e2fa279146101e8575b600080fd5b6101146100e236600461164b565b60a160209081526000928352604080842090915290825290208054600182015460028301546003909301549192909184565b6040805194855260208501939093529183015260608201526080015b60405180910390f35b610175610147366004611628565b60a0602052600090815260409020805460018201546002909201546001600160a01b03918216928216911683565b604080516001600160a01b0394851681529284166020840152921691810191909152606001610130565b6101b26101ad3660046117bf565b6102f5565b005b6101b26101c23660046117bf565b610564565b6101da6101d53660046117bf565b61089c565b604051908152602001610130565b6101b26101f636600461176f565b6108e0565b6101b2610209366004611676565b610a3b565b6101b2610bf0565b6065546001600160a01b03165b6040516001600160a01b039091168152602001610130565b6101da6102493660046117a7565b610c04565b61029961025c366004611628565b609f6020526000908152604090208054600182015460028301546003909301546001600160a01b0390921692909160ff8082169161010090041685565b604080516001600160a01b039096168652602086019490945292840191909152151560608301521515608082015260a001610130565b609754610223906001600160a01b031681565b6101b26102f0366004611628565b610f10565b6102fd610f89565b609a5433600090815260a160209081526040808320858452909152902060010154610328904261189b565b1061037a5760405162461bcd60e51b815260206004820152601f60248201527f596f7572207265776172642069732072656164792c20636c61696d206974210060448201526064015b60405180910390fd5b33600090815260a1602090815260408083208484529091529020600301548211156103f25760405162461bcd60e51b815260206004820152602260248201527f416d6f756e74206265696e6720756e7374616b656420697320746f6f206d7563604482015261682160f01b6064820152608401610371565b60975460405163a9059cbb60e01b81526001600160a01b039091169063a9059cbb9061042490339086906004016117e0565b602060405180830381600087803b15801561043e57600080fd5b505af1158015610452573d6000803e3d6000fd5b505050506040513d601f19601f82011682018060405250810190610476919061174f565b50336000908152609f602052604090206001015461049590839061189b565b336000908152609f602090815260408083206001019390935560a18152828220848352905220600301546104ca90839061189b565b33600090815260a160209081526040808320858452909152902060030181905561051e5733600090815260a16020908152604080832084845290915281208181556001810182905560028101829055600301555b7f85082129d87b2fe11527cb1b3b7a520aeb5aa6913f88a3d8757fe40d1db02fdd338360405161054f9291906117e0565b60405180910390a161056060018055565b5050565b61056c610f89565b33600090815260a1602090815260408083208484529091529020600301548211156105e55760405162461bcd60e51b8152602060048201526024808201527f416d6f756e74206265696e67207769746864726177656e20697320746f6f206d6044820152637563682160e01b6064820152608401610371565b33600090815260a16020908152604080832084845290915281206001015461060d904261189b565b9050609a548110156106705760405162461bcd60e51b815260206004820152602660248201527f4974206861736e2774206265656e206f6e65206d6f6e74682073696e6365207360448201526574616b696e6760d01b6064820152608401610371565b600061067c848361089c565b336000908152609f6020526040902060030154909150610100900460ff166106c8576106a83385610fe3565b336000908152609f60205260409020600301805461ff0019166101001790555b336000908152609f60205260409020600101546106e690859061189b565b336000908152609f602090815260408083206001019390935560a181528282208683529052206003015461071b90859061189b565b33600090815260a160209081526040808320878452909152902060030181905561076f5733600090815260a16020908152604080832086845290915281208181556001810182905560028101829055600301555b6098546040516315490ebb60e01b81526001600160a01b03909116906315490ebb906107a190339085906004016117e0565b600060405180830381600087803b1580156107bb57600080fd5b505af11580156107cf573d6000803e3d6000fd5b505060975460405163a9059cbb60e01b81526001600160a01b03909116925063a9059cbb915061080590339088906004016117e0565b602060405180830381600087803b15801561081f57600080fd5b505af1158015610833573d6000803e3d6000fd5b505050506040513d601f19601f82011682018060405250810190610857919061174f565b507f47cee97cb7acd717b3c0aa1435d004cd5b3c8c57d70dbceb4e4458bbd60e39d433856040516108899291906117e0565b60405180910390a1505061056060018055565b600080609a54836108ad919061185c565b9050600081609e546108bf919061187c565b905060646108cd828761187c565b6108d7919061185c565b95945050505050565b600054610100900460ff16158080156109005750600054600160ff909116105b8061091a5750303b15801561091a575060005460ff166001145b61097d5760405162461bcd60e51b815260206004820152602e60248201527f496e697469616c697a61626c653a20636f6e747261637420697320616c72656160448201526d191e481a5b9a5d1a585b1a5e995960921b6064820152608401610371565b6000805460ff1916600117905580156109a0576000805461ff0019166101001790555b6109a8611512565b609780546001600160a01b038086166001600160a01b031992831617909255609880549285169290911691909117905562278d00609a819055609c5562015180609d556003609e558015610a36576000805461ff0019169055604051600181527f7f26b83ff96e1f2b6a682f133852f6798a09c465da95921460cefb38474024989060200160405180910390a15b505050565b6001600160a01b03818116600090815260a060205260409020541615610aa35760405162461bcd60e51b815260206004820152601860248201527f526566657272616c7320616c72656164792061646465642100000000000000006044820152606401610371565b81600081518110610ac457634e487b7160e01b600052603260045260246000fd5b602002602001015160a06000836001600160a01b03166001600160a01b0316815260200190815260200160002060000160006101000a8154816001600160a01b0302191690836001600160a01b0316021790555081600181518110610b3957634e487b7160e01b600052603260045260246000fd5b602002602001015160a06000836001600160a01b03166001600160a01b0316815260200190815260200160002060010160006101000a8154816001600160a01b0302191690836001600160a01b0316021790555081600281518110610bae57634e487b7160e01b600052603260045260246000fd5b6020908102919091018101516001600160a01b03928316600090815260a0909252604090912060020180546001600160a01b0319169290911691909117905550565b610bf8611541565b610c02600061159b565b565b6000610c0e610f89565b336000908152609f60205260409020600101546801158e460913d0000090610c37908490611844565b1015610c855760405162461bcd60e51b815260206004820181905260248201527f416d6f756e742073686f756c642062652061746c6561737420323020425847216044820152606401610371565b6097546040516323b872dd60e01b8152336004820152306024820152604481018490526001600160a01b03909116906323b872dd90606401602060405180830381600087803b158015610cd757600080fd5b505af1158015610ceb573d6000803e3d6000fd5b505050506040513d601f19601f82011682018060405250810190610d0f919061174f565b5033600090815260a060205260408120546001600160a01b031615610d35576001610d38565b60005b336000818152609f60205260409020549192506001600160a01b0390911614610df2576040805160a081018252338082526020808301878152600184860181815287151560608701908152600060808801818152968152609f90955296909320945185546001600160a01b03919091166001600160a01b0319909116178555905190840155516002830155915160039091018054925115156101000261ff00199215159290921661ffff1990931692909217179055610e3e565b336000908152609f6020526040902060010154610e10908490611844565b336000908152609f6020526040812060018101929092556002909101805491610e38836118b2565b91905055505b60408051608081018252336000818152609f60208181528583206002908101805480885242848901908152888a018781526060808b018f81528a8a5260a188528c8a20948a529387528b89209a518b55915160018b01555193890193909355516003909701969096559284905290815292548451928352928201879052928101919091527f5af417134f72a9d41143ace85b0a26dce6f550f894f2cbc1eeee8810603d91b6910160405180910390a15050336000908152609f6020526040902060020154610f0b60018055565b919050565b610f18611541565b6001600160a01b038116610f7d5760405162461bcd60e51b815260206004820152602660248201527f4f776e61626c653a206e6577206f776e657220697320746865207a65726f206160448201526564647265737360d01b6064820152608401610371565b610f868161159b565b50565b60026001541415610fdc5760405162461bcd60e51b815260206004820152601f60248201527f5265656e7472616e637947756172643a207265656e7472616e742063616c6c006044820152606401610371565b6002600155565b6001600160a01b03828116600090815260a06020526040812054909182918291161580159061102d57506001600160a01b03858116600090815260a0602052604090206001015416155b801561105457506001600160a01b03858116600090815260a0602052604090206002015416155b156110ef57606461106685600161187c565b611070919061185c565b6098546001600160a01b03878116600090815260a06020526040908190205490516315490ebb60e01b8152939650918116926315490ebb926110b892169087906004016117e0565b600060405180830381600087803b1580156110d257600080fd5b505af11580156110e6573d6000803e3d6000fd5b505050506114ca565b6001600160a01b03858116600090815260a06020526040902054161580159061113457506001600160a01b03858116600090815260a060205260409020600101541615155b801561115b57506001600160a01b03858116600090815260a0602052604090206002015416155b156112715768056bc75e2d6310000061117c856709b6e64a8ec6000061187c565b611186919061185c565b925068056bc75e2d631000006111a485670429d069189e000061187c565b6111ae919061185c565b6098546001600160a01b03878116600090815260a06020526040908190205490516315490ebb60e01b8152939550918116926315490ebb926111f692169087906004016117e0565b600060405180830381600087803b15801561121057600080fd5b505af1158015611224573d6000803e3d6000fd5b50506098546001600160a01b03888116600090815260a06020526040908190206001015490516315490ebb60e01b815292821694506315490ebb93506110b89291169086906004016117e0565b6001600160a01b03858116600090815260a0602052604090205416158015906112b657506001600160a01b03858116600090815260a060205260409020600101541615155b80156112de57506001600160a01b03858116600090815260a060205260409020600201541615155b156114ca5768056bc75e2d631000006112ff856709b6e64a8ec6000061187c565b611309919061185c565b925068056bc75e2d63100000611327856702c68af0bb14000061187c565b611331919061185c565b915068056bc75e2d6310000061134f8567016345785d8a000061187c565b611359919061185c565b6098546001600160a01b03878116600090815260a06020526040908190205490516315490ebb60e01b8152939450918116926315490ebb926113a192169087906004016117e0565b600060405180830381600087803b1580156113bb57600080fd5b505af11580156113cf573d6000803e3d6000fd5b50506098546001600160a01b03888116600090815260a06020526040908190206001015490516315490ebb60e01b815292821694506315490ebb935061141c9291169086906004016117e0565b600060405180830381600087803b15801561143657600080fd5b505af115801561144a573d6000803e3d6000fd5b50506098546001600160a01b03888116600090815260a06020526040908190206002015490516315490ebb60e01b815292821694506315490ebb93506114979291169085906004016117e0565b600060405180830381600087803b1580156114b157600080fd5b505af11580156114c5573d6000803e3d6000fd5b505050505b60408051848152602081018490529081018290527f0e59b137b474114b39e6b70a416a41e1a1278ec2dfad0261d6d9ad2621635bbb9060600160405180910390a15050505050565b600054610100900460ff166115395760405162461bcd60e51b8152600401610371906117f9565b610c026115ed565b6065546001600160a01b03163314610c025760405162461bcd60e51b815260206004820181905260248201527f4f776e61626c653a2063616c6c6572206973206e6f7420746865206f776e65726044820152606401610371565b606580546001600160a01b038381166001600160a01b0319831681179093556040519116919082907f8be0079c531659141344cd1fd0a4f28419497f9722a3daafe3b4186f6b6457e090600090a35050565b600054610100900460ff166116145760405162461bcd60e51b8152600401610371906117f9565b610c023361159b565b8035610f0b816118f9565b600060208284031215611639578081fd5b8135611644816118f9565b9392505050565b6000806040838503121561165d578081fd5b8235611668816118f9565b946020939093013593505050565b60008060408385031215611688578182fd5b823567ffffffffffffffff8082111561169f578384fd5b818501915085601f8301126116b2578384fd5b81356020828211156116c6576116c66118e3565b8160051b604051601f19603f830116810181811086821117156116eb576116eb6118e3565b604052838152828101945085830182870184018b1015611709578889fd5b8896505b848710156117325761171e8161161d565b86526001969096019594830194830161170d565b509650611742905087820161161d565b9450505050509250929050565b600060208284031215611760578081fd5b81518015158114611644578182fd5b60008060408385031215611781578182fd5b823561178c816118f9565b9150602083013561179c816118f9565b809150509250929050565b6000602082840312156117b8578081fd5b5035919050565b600080604083850312156117d1578182fd5b50508035926020909101359150565b6001600160a01b03929092168252602082015260400190565b6020808252602b908201527f496e697469616c697a61626c653a20636f6e7472616374206973206e6f74206960408201526a6e697469616c697a696e6760a81b606082015260800190565b60008219821115611857576118576118cd565b500190565b60008261187757634e487b7160e01b81526012600452602481fd5b500490565b6000816000190483118215151615611896576118966118cd565b500290565b6000828210156118ad576118ad6118cd565b500390565b60006000198214156118c6576118c66118cd565b5060010190565b634e487b7160e01b600052601160045260246000fd5b634e487b7160e01b600052604160045260246000fd5b6001600160a01b0381168114610f8657600080fdfea2646970667358221220b602a723e054e5368efe4aa6f43f375ee5df47138a8774166601c3adea6baea264736f6c63430008040033",
  "linkReferences": {},
  "deployedLinkReferences": {}
}